:060000000A128A11EE2F26
:1009240008000A128A11A424111408000A128A1158
:10093400A424111508000A128A11A4247008831231
:1009440093000800831603131419A42C11081F39EB
:1009540003190800A42C0A128A1186260A128A1185
:100964000A128A1181250A128A110A128A11922402
:100974000A128A11B22C7E088A007F088200BD24E4
:100984000A128A118000840A04087D0603190034BF
:10099400FF0A0319FE0AC12CFD007A0884008313A0
:1009A4000008031908007908FB007B08F6007A08A0
:1009B40084000008FC007C08F7007D080A128A11F4
:1009C4004C250A128A110130FB007B08FA0701301A
:1009D400FB007B08F907CF2C4E3441344C344734A8
:1009E40055344D34413420345434453443344C3438
:1009F4004134213400345034523445345334533464
:100A040049344F344E344F34553400345034523416
:100A140045345334533449344F344E3441345234CE
:100A24000034413420345434453443344C34413458
:100A34000034B83094008316910183124D08D1001C
:100A44004E08D2004F08D3005008D40002300310DF
:100A5400D10DD20DD30DD40DFF3E031D292D540805
:100A6400F3005308F2005208F1005108F00001307D
:100A7400F7003130F6002D30F5000030F4000A1292
:100A84008A11BB257008FF3E831693009401FF3042
:100A940087000800F8006E2D76087F3E0A128A113E
:100AA400FA260A128A117C2D7608BF3E0A128A1190
:100AB400FA260A128A117C2D7608933E0A128A11AC
:100AC400FA260A128A117C2D7608D33E0A128A115C
:100AD400FA260A128A117C2D7808013A03194E2D40
:100AE400033A0319562D013A03195E2D073A0319E7
:100AF400662D7C2D77080A128A116F27080083124D
:100B0400031305188F2D58085904031D8F2D013028
:100B1400D8070318D90A0030D907051C080059085A
:100B2400803AFF0080307F02031D9A2D0130580265
:100B3400031C0800F901F90A2F3083120313CD00B6
:100B44004D08FA0001300A128A11CE240A128A11C1
:100B5400F901F90A453083120313CD004D08FA0058
:100B640002300A128A11CE2483120313D801D90148
:100B740008000030FC000030FB000030FA000030B8
:100B8400F90073087204710470040319102EFD0136
:100B9400FD0AF31BDB2D0130F8000310F00DF10DFD
:100BA400F20DF30DF80BCF2D0130F8007808FD0796
:100BB400CB2D0130F8000310F90DFA0DFB0DFC0DDF
:100BC400F80BDD2D73087702031DF22D72087602EF
:100BD400031DF22D71087502031DF22D70087402B5
:100BE400031C032E7008F4027108031C710FF50234
:100BF4007208031C720FF6027308031C730FF702CA
:100C0400791401300310F30CF20CF10CF00CFF3EDC
:100C1400031D042E0130FD02031DDB2D7C08F300AF
:100C24007B08F2007A08F1007908F000080002302D
:100C3400F8004530F700A930F600F60B1F2EF70B2D
:100C44001F2EF80B1F2E262E0A128A1193240A1225
:100C54008A1102300A128A11FA260A128A114130C4
:100C6400F700EE30F600F60B352EF70B352E0000AC
:100C740028300A128A11FA260A128A114130F70022
:100C8400EE30F600F60B442EF70B442E00000F3026
:100C94000A128A11FA260A128A114130F700EE303C
:100CA400F600F60B532EF70B532E000006300A12F3
:100CB4008A11FA260A128A114130F700EE30F60042
:100CC400F60B622EF70B622E000001300A128A1115
:100CD400FA260A128A114130F700EE30F600F60BBC
:100CE400712EF70B712E000080300A128A11FA2639
:100CF4000A128A114130F700EE30F600F60B802E0E
:100D0400F70B802E00000800831603178901880161
:100D1400831287138813013083160313850083120B
:100D24000510D801D9010030D0000130CF00863041
:100D3400CE00A030CD000A128A111B250A128A1196
:100D44000A128A1119260A128A1101300A128A110A
:100D5400FA260A128A11F901F90A3A3083120313A6
:100D6400D5005508FA0001300A128A11CE240A125D
:100D74008A110D3083120313D700AF30D600B5307B
:100D8400D500D50BC32ED60BC32ED70BC32ECA2E1C
:100D9400053083120313D5005508F9002130D6001D
:100DA4005608FA0002300A128A11CE240A128A1155
:100DB4001A3083120313D7005E30D6006D30D5008D
:100DC400D50BE22ED60BE22ED70BE22EE92EC03045
:100DD4000A128A11FA260A128A110C300A128A118E
:100DE400FA260A128A1101300A128A11FA26080018
:100DF400F4007408F039F2007208F5000A128A113E
:100E040093240A128A114E30F0000030F1000A12C5
:100E14008A119D240A128A117508043AF200720894
:100E2400F5007508F200F3017208F0007308F10090
:100E34000A128A119D240A128A117508F039F200E7
:100E44007208F5007508F200F3017208F0007308E7
:100E5400F1000A128A119D240A128A117408F20000
:100E640003300310F20DFF3E031D332F0310720DE8
:100E7400F039F3007308F5007508043AF2007208BB
:100E8400F5007508F200F3017208F0007308F10030
:100E94000A128A119D240A128A117508F039F20087
:100EA4007208F5007508F200F3017208F000730887
:100EB400F1000A128A119D240A128A110A128A1157
:100EC40098240A128A114130F300EE30F200F20B3A
:100ED400692FF30B692F00000800F4007408F0393F
:100EE400F2007208F5000A128A1193240A128A1178
:100EF4004E30F0000030F1000A128A119D240A12CB
:100F04008A117508053AF2007208F5007508F200B6
:100F1400F3017208F0007308F1000A128A119D248B
:100F24000A128A117508F039F2007208F500750882
:100F3400013AF2007208F5007508F200F301720834
:100F4400F0007308F1000A128A119D240A128A1112
:100F54007408F20003300310F20DFF3E031DAD2FA1
:100F64000310720DF039F3007308F5007508053AA3
:100F7400F2007208F5007508F200F3017208F0003F
:100F84007308F1000A128A119D240A128A11750845
:100F9400F039F2007208F5007508013AF20072089F
:100FA400F5007508F200F3017208F0007308F1000F
:100FB4000A128A119D240A128A110A128A1198248B
:100FC4000A128A114130F300EE30F200F20BE82FDE
:100FD400F30BE82F0000080083134D30FD000430AC
:100FE400FE00EE30FF00203084000A128A11C12472
:0C0FF400D801D90183010A128A11AD2C2A
:04400E00E120FF3F6F
:00000001FF
