:100000000A128A11EB2F00308A000408840A820742
:0A0010000034203400343034003492
:10077E000A128A11D023111408000A128A11D023EA
:10078E00111508000A128A11D023700883129300E3
:10079E000800831603131419D02B11081F390319DF
:1007AE000800D02B7E088A007F088200D9230A1207
:1007BE008A118000840A04087D0603190034FF0A9A
:1007CE000319FE0ADD2B0830F9007908F600033014
:1007DE0084000A128A1103200A128A115107FA00A4
:1007EE007A08F70002300A128A11AD2408000A12A4
:1007FE008A11E2240A128A110A128A1133240A1269
:10080E008A110A128A111A250A128A110A128A11DB
:10081E0035270A128A11032CFD007A0884008313EF
:10082E000008031908007908FB007B08F6007A0817
:10083E0084000008FC007C08F7007D080A128A116B
:10084E00AD240A128A110130FB007B08FA07013031
:10085E00FB007B08F907142C8312031305183E2C9A
:10086E005308031D3E2CFF30F0007008D300051C0A
:10087E000800530A031D0800043051065204031DDC
:10088E004D2C0130D1000030D200532C0130D10755
:10089E000318D20A0030D207D30108000034013405
:1008AE00033407340F341F343F347F34FF340134A4
:1008BE00023404340834103420344034803481340B
:1008CE004234243418344E344C34453444342034B9
:1008DE0041347234723461347934003443346F34B9
:1008EE006E3474342E343A340034B8309400831697
:1008FE00910183124708CB004808CC004908CD006F
:10090E004A08CE0002300310CB0DCC0DCD0DCE0D0E
:10091E00FF3E031D8A2C4E08F3004D08F2004C08D2
:10092E00F1004B08F0000130F7003130F6002D30A9
:10093E00F5000030F4000A128A1176257008FF3E89
:10094E00831693009401FF3087000800F800CF2C27
:10095E0076087F3E0A128A1141260A128A11DD2C70
:10096E007608BF3E0A128A1141260A128A11DD2C20
:10097E007608933E0A128A1141260A128A11DD2C3C
:10098E007608D33E0A128A1141260A128A11DD2CEC
:10099E007808013A0319AF2C033A0319B72C013A20
:1009AE000319BF2C073A0319C72CDD2C77080A123E
:1009BE008A11B6260800831603178901880183124F
:1009CE008713881301308316031385008601831263
:1009DE008601D101D201CF01D00105100511D3013D
:1009EE000030CA000130C9008630C800A030C700F0
:1009FE000A128A117C240A128A110A128A11D4252B
:100A0E000A128A11C0300A128A1141260A128A115C
:100A1E000C300A128A1141260A128A1101300A126A
:100A2E008A11412608000C300A128A1141260A1238
:100A3E008A11F901F90A363083120313C7004708E9
:100A4E00FA0001300A128A1113240A128A11F901CE
:100A5E00F90A403083120313C7004708FA00023028
:100A6E000A128A1113240A128A11063083120313F2
:100A7E00C7004708F600013084000A128A110320CD
:100A8E000A128A11C8004808F70002300A128A11A9
:100A9E00AD240A128A11073083120313C7004708C8
:100AAE00F600013084000A128A1103200A128A11FC
:100ABE00C8004808F70002300A128A11AD240A1243
:100ACE008A11033084000A128A1103200A128A1135
:100ADE008312031351070A128A11B626080000303A
:100AEE00FC000030FB000030FA000030F900730803
:100AFE007204710470040319CB2DFD01FD0AF31B62
:100B0E00962D0130F8000310F00DF10DF20DF30DDE
:100B1E00F80B8A2D0130F8007808FD07862D01307C
:100B2E00F8000310F90DFA0DFB0DFC0DF80B982DC6
:100B3E0073087702031DAD2D72087602031DAD2DCD
:100B4E0071087502031DAD2D70087402031CBE2DB5
:100B5E007008F4027108031C710FF5027208031C71
:100B6E00720FF6027308031C730FF702791401302B
:100B7E000310F30CF20CF10CF00CFF3E031DBF2D15
:100B8E000130FD02031D962D7C08F3007B08F20058
:100B9E007A08F1007908F00008000230F8004530BC
:100BAE00F700A930F600F60BDA2DF70BDA2DF80B5D
:100BBE00DA2DE12D0A128A11BF230A128A11023090
:100BCE000A128A1141260A128A114130F700EE30BC
:100BDE00F600F60BF02DF70BF02D000028300A1260
:100BEE008A1141260A128A114130F700EE30F600C2
:100BFE00F60BFF2DF70BFF2D00000F300A128A1196
:100C0E0041260A128A114130F700EE30F600F60B3B
:100C1E000E2EF70B0E2E000006300A128A114126F8
:100C2E000A128A114130F700EE30F600F60B1D2E37
:100C3E00F70B1D2E000001300A128A1141260A12EE
:100C4E008A114130F700EE30F600F60B2C2EF70B22
:100C5E002C2E000080300A128A1141260A128A11A7
:100C6E004130F700EE30F600F60B3B2EF70B3B2E25
:100C7E0000000800F4007408F039F2007208F50064
:100C8E000A128A11BF230A128A114E30F000003068
:100C9E00F1000A128A11C9230A128A117508043A40
:100CAE00F2007208F5007508F200F3017208F00008
:100CBE007308F1000A128A11C9230A128A117508E3
:100CCE00F039F2007208F5007508F200F3017208AF
:100CDE00F0007308F1000A128A11C9230A128A1150
:100CEE007408F20003300310F20DFF3E031D7A2E3E
:100CFE000310720DF039F3007308F5007508043A0D
:100D0E00F2007208F5007508F200F3017208F000A7
:100D1E007308F1000A128A11C9230A128A11750882
:100D2E00F039F2007208F5007508F200F30172084E
:100D3E00F0007308F1000A128A11C9230A128A11EF
:100D4E000A128A11C4230A128A114130F300EE30BE
:100D5E00F200F20BB02EF30BB02E00000800F400E0
:100D6E007408F039F2007208F5000A128A11BF23D6
:100D7E000A128A114E30F0000030F1000A128A1168
:100D8E00C9230A128A117508053AF2007208F50095
:100D9E007508F200F3017208F0007308F1000A12F0
:100DAE008A11C9230A128A117508F039F2007208E5
:100DBE00F5007508013AF2007208F5007508F200A8
:100DCE00F3017208F0007308F1000A128A11C923A8
:100DDE000A128A117408F20003300310F20DFF3E5E
:100DEE00031DF42E0310720DF039F3007308F50095
:100DFE007508053AF2007208F5007508F200F30165
:100E0E007208F0007308F1000A128A11C9230A123F
:100E1E008A117508F039F2007208F5007508013A6A
:100E2E00F2007208F5007508F200F3017208F00086
:100E3E007308F1000A128A11C9230A128A110A12C2
:100E4E008A11C4230A128A114130F300EE30F200E7
:100E5E00F20B2F2FF30B2F2F00000800D22FFF3095
:100E6E0086000800CF01D0015008803AFF00803084
:100E7E007F02031D442F08304F020318080083120F
:100E8E00031386014F08293E840083130008860051
:100E9E000A128A11EA230A128A110D30FD00AF30B0
:100EAE00FC00B630FB00FB0B5A2FFC0B5A2FFD0B30
:100EBE005A2F00000A128A1133240A128A110230A4
:100ECE0051065204031D08000130CF070318D00A43
:100EDE000030D0073B2F0603031D772F803086008E
:100EEE000A128A11EA230A128A110D30FD00AF3060
:100EFE00FC00B630FB00FB0B822FFC0B822FFD0B90
:100F0E00822F00000A128A1133240608FB000310F8
:100F1E007B0C86000800C701C801831203138601EB
:100F2E004708313E84008313000886000A128A1196
:100F3E00EA230A128A110D30FD00AF30FC00B630E4
:100F4E00FB00FB0BA82FFC0BA82FFD0BA82F0000FE
:100F5E000A128A1133240A128A11043051065204DD
:100F6E00031D08000130C7070318C80A0030C80760
:100F7E004808803AFF0080307F02031DC82F0430DE
:100F8E00470203180800942F0130D1000030D20020
:100F9E00080086010800831203135208003A031951
:100FAE00D92FD02F5108013A0319362F033A0319BE
:100FBE00392F013A0319722F073A0319922F013A6A
:100FCE000319CB2FD02F080083134730FD000430B8
:100FDE00FE005530FF00203084000A128A11DD23F6
:100FEE00CF01D001D101D201D30183010A128A119E
:020FFE00FE2BC8
:04400E00E120FF3F6F
:00000001FF
