:060000000A128A11D02F44
:100DCE0010342034403480340A128A1123270A1238
:100DDE008A110A128A116B270A128A110A128A11B3
:100DEE003D270A128A11F02E7E088A007F088200A3
:100DFE00FB260A128A118000840A04087D06031954
:100E0E000034FF0A0319FE0AFF2EC034F934A4344D
:100E1E00B034993492348234F83480349034BF3400
:100E2E000A3400340A3400340A3400340A340034EC
:100E3E003F343134313479348316031788018901F4
:100E4E0083128713881303308316031385008801DA
:100E5E0086018312850188018601F001F101F201FC
:100E6E00F301F401F501F601F7010800F601F701AF
:100E7E007708803AFF0080307F02031D482F043030
:100E8E007602031808007608783E84000009831263
:100E9E00031388007608FC007C072B3E8400831326
:100EAE000008203E8400000886000630FD00D73082
:100EBE00FC00FC0B602FFD0B602F0130F6070318B2
:100ECE00F70A0030F7073F2F831203130503031DA4
:100EDE00762F0130F2070318F30A0030F3070508E6
:100EEE00031D992F720873040319992F2C08803A49
:100EFE00FF0080307F02031D862F09302B02031C5A
:100F0E008D2F83120313AB01AC01972F83120313A2
:100F1E002B08013EAB002C080318013E003EAC002E
:100F2E00F201F30102300506031DA32F0130F00775
:100F3E000318F10A0030F1070508031D08007008B8
:100F4E007104031908007508803AFF0080307F0293
:100F5E00031DB32F043074020318CD2F7408FC0048
:100F6E007C072D3E8400831203132B08831380000D
:100F7E00840A2C088000AB01AC010130F407031881
:100F8E00F50A0030F507F001F1010800F401F50152
:100F9E00080083133730FD000730FE000C30FF00D1
:100FAE00203084000A128A11FF260A128A110A12B0
:100FBE008A11E7260A128A11F8000A128A11E82607
:100FCE000A128A11F9000A128A11E9260A128A11E6
:100FDE00FA000A128A11EA26FB00F001F101F20171
:100FEE00F301F401F501F601F70183010A128A11EA
:020FFE00EB2ED8
:04400E00E120FF3F6F
:00000001FF
