:060000000A128A110C280F
:10000800FE00030EF1000A08F2000A128A11892E76
:100018000A128A110F2883135B30FD000630FE0098
:100028001930FF00403084000A128A117C26DB0157
:10003800DC01DD01DE01F801F901FA0183010A1290
:100048008A11632E0C300A128A11A1220A128A110F
:1000580083120313B701B70A4130BC003C08B8004B
:1000680001300A128A11B5250A128A110830BC001B
:100078003C08B4000A30AC000030AD005C08AF00AA
:100088005B08AE000A128A1163240A128A112C082E
:10009800BD002D08BE00013084000A128A11A22674
:1000A8000A128A113D07BF003F08B50001300A1245
:1000B8008A119F240A128A110A3083120313A60098
:1000C8000030A7005C08A9005B08A8000A128A1182
:1000D800D6240A128A112608BC002708BD00013060
:1000E80084000A128A11A2260A128A113C070A12EF
:1000F8008A11A8210A128A110A3083120313A60052
:100108000030A7005C08A1005B08A0000A30A2002C
:100118000030A3000A128A11D7250A128A11210871
:10012800A9002008A8000A128A11D6240A128A11E6
:100138002608BC002708BD00013084000A128A1175
:10014800A2260A128A113C070A128A11A8210A1249
:100158008A1183120313B701B70A4F30BC003C0859
:10016800B80002300A128A11B5250A128A1107301E
:10017800BC003C08B400013084000A128A11A2268F
:100188000A128A11BD000A30BE003E08F3005D085D
:100198000A128A11F8250A128A113D07BF003F0882
:1001A800B50002300A128A119F240A128A110130FE
:1001B80084000A128A11A2260A128A1183120313D2
:1001C800BC000A30BD003D08F3005D080A128A1120
:1001D80092250A128A113C070A128A11A8210A12CA
:1001E8008A110A3083120313A6000030A7005D08A5
:1001F800BC00BD013C08A0003D08A1000A30A200D7
:100208000030A3000A128A11D7250A128A11210880
:10021800A9002008A8000A128A11DB230A128A11F1
:100228002608BE002708BF00013084000A128A1180
:10023800A2260A128A113E070A128A11A82108006A
:100248005E08B400B501E830AC000330AD0064309E
:10025800B6003608F3005D080A128A11F8250A125A
:100268008A11B700B8013708A0003808A1005C0857
:10027800A3005B08A2000A128A11D7250A128A1164
:100288002108AF002008AE000A128A1163240A125E
:100298008A1135082D02031D532934082C02031C2A
:1002A800A6296430B4003408F3005D080A128A11E4
:1002B800F8250A128A11B500B6013508A0003608DB
:1002C800A1005C08A3005B08A2000A128A11D725C6
:1002D8000A128A112108A9002008A800E830A600FF
:1002E8000330A7000A128A11D6240A128A11270895
:1002F800BA002608B9000108B400B5010A30AC00FC
:100308000030AD003A08A1003908A000FF30A20073
:100318000030A3000A128A11D7250A128A1121086F
:10032800AF002008AE000A128A1163240A128A114B
:1003380035082D02031DA22934082C02031CA62906
:100348000914080009100800A0002008F039F50079
:100358007508A1000A128A11BE260A128A114E30A7
:10036800F3000030F4000A128A11B2260A128A1128
:100378002108053AF5007508A1002108F500F601E5
:100388007508F3007608F4000A128A11B2260A12D8
:100398008A112108F039F5007508A1002108013AF1
:1003A800F5007508A1002108F500F6017508F300AD
:1003B8007608F4000A128A11B2260A128A11200855
:1003C800F50003300310F50DFF3E031DE629031069
:1003D800750DF039F6007608A1002108053AF500F8
:1003E8007508A1002108F500F6017508F3007608E4
:1003F800F4000A128A11B2260A128A112108F03969
:10040800F5007508A1002108013AF5007508A1005A
:100418002108F500F6017508F3007608F4000A12C1
:100428008A11B2260A128A110A128A11B9260A12E8
:100438008A114130F600EE30F500F50B212AF60B53
:10044800212A00000800023083120313A40045305B
:10045800A300A930A200A20B2F2AA30B2F2AA40BBA
:100468002F2A0A128A11BE260A128A1102300A128B
:100478008A11A1220A128A11413083120313A300A0
:10048800ED30A200A20B462AA30B462A4B2A28309D
:100498000A128A11A1220A128A1141308312031307
:1004A800A300ED30A200A20B572AA30B572A5C2AFF
:1004B8000F300A128A11A1220A128A1141308312BE
:1004C8000313A300ED30A200A20B682AA30B682A2D
:1004D8006D2A06300A128A11A1220A128A114130A5
:1004E80083120313A300ED30A200A20B792AA30BF9
:1004F800792A7E2A01300A128A11A1220A128A1147
:10050800413083120313A300ED30A200A20B8A2A04
:10051800A30B8A2A8F2A80300A128A11A1220A1272
:100528008A11413083120313A300ED30A200A20BFD
:100538009B2AA30B9B2AA02A080083120313A0005E
:100548002008F039F5007508A1000A128A11BE26A4
:100558000A128A114E30F3000030F4000A128A1190
:10056800B2260A128A112108043AF5007508A1007A
:100578002108F500F6017508F3007608F4000A1260
:100588008A11B2260A128A112108F039F500750875
:10059800A1002108F500F6017508F3007608F400BB
:1005A8000A128A11B2260A128A112008F5000330AD
:1005B8000310F50DFF3E031DDC2A0310750DF039FD
:1005C800F6007608A1002108043AF5007508A10094
:1005D8002108F500F6017508F3007608F4000A1200
:1005E8008A11B2260A128A112108F039F500750815
:1005F800A1002108F500F6017508F3007608F4005B
:100608000A128A11B2260A128A110A128A11B92606
:100618000A128A114130F600EE30F500F50B122B64
:10062800F60B122B000008000030B0000130AF00BC
:100638008630AE00A030AD000A128A1108250A12D1
:100648008A110A128A1127220A128A1101300A1203
:100658008A11A1220A128A1183120313B701B70A59
:100668005530BC003C08B80001300A128A11B52583
:100678000A128A110D3083120313BE00AF30BD0079
:10068800B530BC00BC0B462BBD0B462BBE0B462B16
:100698004D2B053083120313BC003C08B7004830CB
:1006A800BD003D08B80002300A128A11B5250A12A9
:1006B8008A111A3083120313BE005E30BD006D30FC
:1006C800BC00BC0B652BBD0B652BBE0B652B6C2BC7
:1006D800C0300A128A11A1220A128A110C300A1299
:1006E8008A11A1220A128A1101300A128A11A12242
:1006F80008000030AB000030AA000030A90000302C
:10070800A80023082204210420040319D22BAC01D9
:10071800AC0AA31B9D2B0130F3000310A00DA10D03
:10072800A20DA30DF30B912B0130F3007308AC0756
:100738008D2B0130F3000310A80DA90DAA0DAB0DE8
:10074800F30B9F2B23082702031DB42B2208260234
:10075800031DB42B21082502031DB42B20082402F5
:10076800031CC52B2008A4022108031C210FA50285
:100778002208031C220FA6022308031C230FA7022A
:10078800281401300310A30CA20CA10CA00CFF3EEE
:10079800031DC62B0130AC02031D9D2B2B08A300A3
:1007A8002A08A2002908A1002808A0000800AC0116
:1007B800A91FE52BA809A909A80A0319A90AAC01C8
:1007C800AC0AA71FEC2BA609A709A60A0319A70AB2
:1007D800260827040319192CAB01AB0AA71B002C08
:1007E80001300310A60DA70DFF3E031DF52B0130A8
:1007F800AA002A08AB07F22B27082902031D062C9A
:1008080026082802031C0E2C2608A8022708031C09
:10081800A903A90201300310A70CA60CFF3E031D73
:100828000F2C0130AB02031D002C2C080319212CBE
:10083800A809A909A80A0319A90A2908A7002808C4
:10084800A6000800050303192D2C02300506031D18
:10085800332CFA01FA0A0508F4007408F900033089
:100868000506031D08007A03031D0800512C0430F7
:100878007806031D412CF801452C0130F40074085A
:10088800F8070A128A116625F901FA0108000A1206
:100898008A114C260A128A11482C79080339F40067
:1008A800F5017508003A03195A2C482C7408013AC6
:1008B80003194B2C033A03193B2C482C0800B101AF
:1008C800B2012C082D0403199A2CB301B30AAD1BED
:1008D800792C01300310AC0DAD0DFF3E031D6E2CBD
:1008E8000130B0003008B3076B2C01300310B10D94
:1008F800B20DFF3E031D7A2C2D082F02031D862CF6
:100908002C082E02031C8F2C2C08AE022D08031C69
:10091800AF03AF02311401300310AD0CAC0CFF3E35
:10092800031D902C0130B302031D792C3208AD0051
:100938003108AC000800B600C12C34087F3E0A120A
:100948008A11A1220A128A11CF2C3408BF3E0A123A
:100958008A11A1220A128A11CF2C3408933E0A1256
:100968008A11A1220A128A11CF2C3408D33E0A1206
:100978008A11A1220A128A11CF2C3608013A0319CA
:10098800A12C033A0319A92C013A0319B12C073AEF
:100998000319B92CCF2C8312031335080A128A11B4
:1009A800A8210800260827040319032DAB01AB0A68
:1009B800A71BEA2C01300310A60DA70DFF3E031D4F
:1009C800DF2C0130AA002A08AB07DC2C27082902F3
:1009D800031DF02C26082802031CF82C2608A80260
:1009E8002708031CA903A90201300310A70CA60CB1
:1009F800FF3E031DF92C0130AB02031DEA2C290828
:100A0800A7002808A6000800B830940083169101B2
:100A180083122D08F4002E08F5002F08F600300880
:100A2800F70002300310F40DF50DF60DF70DFF3E3B
:100A3800031D162D7708A3007608A2007508A100EB
:100A48007408A0000130A7003130A6002D30A500A1
:100A58000030A4000A128A117D232008FF3E831665
:100A680093009401FF30870008008B170B170B16B3
:100A78008316811701178112011281110108F839B3
:100A8800013881000630831281008B160B11831602
:100A98000317880189018312871388133F3083164F
:100AA80003138500013086008901831285018601C0
:100AB800F80109100511851005108B100B11DB01C9
:100AC800DC010800832D883083120313DB00133008
:100AD800DC000800283083120313DB000F30DC0031
:100AE80008004D3083120313DB000830DC000800D7
:100AF8008E3083120313DB000430DC000800780812
:100B0800013A0319672D033A03196E2D013A0319A7
:100B1800752D073A03197C2D912D0800A000083087
:100B2800F4007408A100A2012008F40007300310A3
:100B3800F40CFF3E031D9B2D2208F5007507740475
:100B4800F6007608A2000310A00D73082202031C09
:100B5800AF2D7308A2020130A102031D982D2208AF
:100B68000800BB0038088400831300080319080034
:100B78003708B9003908B400380884000008BA00FA
:100B88003A08B5003B080A128A119F240A128A11F2
:100B9800013083120313B9003908B8070130B900CE
:100BA8003908B707B62DA401A501201CE12D22089C
:100BB800A4070318A50A2308A50701300310A20DEE
:100BC800A30DFF3E031DE22D01300310A10CA00C64
:100BD800FF3E031DE92D20082104031DD92D2508FA
:100BE800A1002408A0000800F500F7017308031904
:100BF800172EF601F60AF31B082E0310F30D013029
:100C0800F4007408F607FF2D0310F70D730875023A
:100C1800031C122E7308F50277140310F30C01302D
:100C2800F602031D082E770808004E344634723445
:100C3800653471342E343A34003456342E3420342A
:100C480031342E343034003444342E3443342E348A
:100C58003A34003420345034573457342034003474
:100C68000A128A11AA260A128A110A128A1126243D
:100C78000A128A110A128A1166250A128A110A12A0
:100C88008A114C260A128A110A128A112421080094
:100C9800831203138518522EF901F90A851C0800DE
:100CA80079080319080064305D06031D5D2EDD0117
:100CB800612E0130F3007308DD07F90108000A12FC
:100CC8008A1139250A128A110A128A1118230A125E
:100CD8008A110A128A1134260A128A110A128A11F2
:100CE80026200A128A116D2E7E088A007F0882004B
:100CF80078260A128A118000840A04087D060319DE
:100D08000034FF0A0319FE0A7C2E0130F000700837
:100D180083120313DE07063081000B1172088A0064
:100D2800710E8300FE0E7E0E09008316031314193C
:100D3800992E11081F3903190800992E06308A00C8
:100D48000408840A820700343034003406308312E1
:100D580003135E02031C0800DE0108000A128A1150
:100D6800992673088312930008000A128A1199269B
:0E0D7800111508000A128A119926111408009C
:04400E00E120FF3F6F
:00000001FF
