:060000000A128A11E22F32
:100008000A128A11092011150800831603131419FE
:10001800092811081F39031908000928831603172E
:100028008901880183128713881303308316031309
:10003800850086018312860105108510051103309D
:10004800EA000030EB005F30EC000030ED000030DB
:10005800E2000130E1008630E000A030DF000A1243
:100068008A1577250A128A110A128A151E270A127A
:100078008A11F901F90A433083120313E70067086C
:10008800FA0001300A128A1557250A128A110D3012
:1000980083120313E900AF30E800B530E700E70B3F
:1000A8005328E80B5328E90B53285A28F901F90A71
:1000B800A03083120313E7006708FA0002300A121F
:1000C8008A1557250A128A110D3083120313E90085
:1000D800AF30E800B530E700E70B7028E80B702870
:1000E800E90B70287728C0300A128A158B270A1264
:1000F8008A110C300A128A158B270A128A110130CC
:100108000A128A158B270800F4007408F039F200E7
:100118007208F5000A128A15F9240A128A114E305B
:10012800F0000030F1000A128A15FE240A128A1122
:100138007508053AF2007208F5007508F200F30137
:100148007208F0007308F1000A128A15FE240A12D8
:100158008A117508F039F2007208F5007508013A3D
:10016800F2007208F5007508F200F3017208F00059
:100178007308F1000A128A15FE240A128A117408FB
:10018800F20003300310F20DFF3E031DC6280310D2
:10019800720DF039F3007308F5007508053AF2009E
:1001A8007208F5007508F200F3017208F000730890
:1001B800F1000A128A15FE240A128A117508F0390C
:1001C800F2007208F5007508013AF2007208F500AD
:1001D8007508F200F3017208F0007308F1000A12C2
:1001E8008A15FE240A128A110A128A1104200A1298
:1001F8008A114130F300EE30F200F20B0129F30BC3
:100208000129000008000C300A128A158B270A12EF
:100218008A11F901F90A5A3083120313DF005F08C3
:10022800FA0001300A128A1557250A128A11F901B3
:10023800F90A543083120313DF005F08FA00023012
:100248000A128A1557250A128A11063083120313D7
:10025800DF005F08F600013084000A128A150020CA
:100268000A128A11E0006008F70002300A128A15A3
:10027800A8250A128A11073083120313DF005F08CA
:10028800F600013084000A128A1500200A128A1129
:10029800E0006008F70002300A128A15A8250A1241
:1002A8008A11053084000A128A1500200A128A1160
:1002B800831203136A070A128A1188200A128A1104
:1002C800033084000A128A1500200A128A110A12C1
:1002D8008A1188200A128A110A30F0000030F100D1
:1002E800831203136D08F3006C08F2000A128A15D2
:1002F80067260A128A117008DF007108E0000530CD
:1003080084000A128A1500200A128A115F070A124D
:100318008A1188200A128A110A30F0000030F10090
:10032800831203136D08F3006C08F2000A128A1591
:100338001C260A128A117008DF007108E0000530D7
:1003480084000A128A1500200A128A115F070A120D
:100358008A1188200A128A11103083120313DF00D1
:100368005F08F600093084000A128A1500200A1274
:100378008A11E0006008F70002300A128A15A825E1
:1003880008000A128A15F4240A128A110508860040
:1003980005080339E1006108EE006E0886008B2A23
:1003A8006D08803AFF0080307F02031DDD2963302D
:1003B8006C02031CE929013083120313EA070318AE
:1003C800EB0A0030EB07EC01ED01831203136B0815
:1003D800803AFF0080307F02031DF42904306A024E
:1003E800031C2E2A043083120313EA000030EB00AA
:1003F800EC01ED010D3083120313E300AF30E2008E
:10040800B530E100E10B062AE20B062AE30B062AC7
:100418000D2A831203130515F901F90A3230E10098
:100428006108FA0002300A128A1557250A128A1141
:100438000D3083120313E300AF30E200B530E10062
:10044800E10B242AE20B242AE30B242A2B2A831209
:10045800031305110A128A1107210A128A110A12B6
:100468008A15F42408006B08803AFF0080307F0268
:10047800031D402A04306A02031C4E2AFF308312EF
:100488000313EA070318EB0AFF30EB076330EC00AD
:100498000030ED00831203136C086D04031D5E2AFF
:1004A800FF30EA070318EB0AFF30EB076330EC0074
:1004B8000030ED006D08803AFF0080307F02031D98
:1004C800672A03306C0203182E2A831203136A0862
:1004D8006B04031D2E2AEA01EB010230EC00003008
:1004E800ED000D3083120313E300AF30E200B530A6
:1004F800E100E10B7D2AE20B7D2AE30B7D2A842AA9
:10050800831203130515F901F90A2130132A6E081D
:10051800013A0319372A033A0319D429332A080060
:100528006D08803AFF0080307F02031D9D2A01304C
:100538006C02031C4F2B831203136B08803AFF00D5
:1005480080307F02031DAA2A03306A02031C4F2B46
:100558000F30F9007908F600013084000A128A1574
:1005680000200A128A11FA007A08F70001300A12EC
:100578008A15A8250A128A110E30F9007908F600A2
:10058800013084000A128A1500200A128A11FA0022
:100598007A08F70001300A128A15A8250A128A116A
:1005A8000D30F9007908F600013084000A128A1526
:1005B80000200A128A11FA007A08F70001300A129C
:1005C8008A15A8250A128A110C30F9007908F60054
:1005D800013084000A128A1500200A128A11FA00D2
:1005E8007A08F70001300A128A15A8250A128A111A
:1005F8000B30F9007908F600013084000A128A15D8
:1006080000200A128A11FA007A08F70001300A124B
:100618008A15A8250A128A110A30F9007908F60005
:10062800013084000A128A1500200A128A11FA0081
:100638007A08F70001300A128A15A8250A128A11C9
:100648000930F9007908F600013084000A128A1589
:1006580000200A128A11FA007A08F70001300A12FB
:100668008A15A8250A128A110830F9007908F600B7
:10067800013084000A128A1500200A128A11FA0031
:100688007A08F70001300A128A15A8250A128A1179
:10069800831203138601831203136C086D04031D70
:1006A8005A2B02306A066B0403196B2B6D08803ACB
:1006B800FF0080307F02031D632B50306C02031C47
:1006C8000E2C831203136A036B04031D0E2C860180
:1006D800013086000F30F9007908F60007308400F1
:1006E8000A128A1500200A128A11FA007A08F700FD
:1006F80001300A128A15A8250A128A110E30F9004B
:100708007908F600013084000A128A1500200A12BE
:100718008A11FA007A08F70001300A128A15A8250A
:100728000A128A110D30F9007908F60001308400A8
:100738000A128A1500200A128A11FA007A08F700AC
:1007480001300A128A15A8250A128A110C30F900FC
:100758007908F600013084000A128A1500200A126E
:100768008A11FA007A08F70001300A128A15A825BA
:100778000A128A110B30F9007908F600013084005A
:100788000A128A1500200A128A11FA007A08F7005C
:1007980001300A128A15A8250A128A110A30F900AE
:1007A8007908F600013084000A128A1500200A121E
:1007B8008A11FA007A08F70001300A128A15A8256A
:1007C8000A128A110930F9007908F600013084000C
:1007D8000A128A1500200A128A11FA007A08F7000C
:1007E80001300A128A15A8250A128A110830F90060
:1007F8007908F600013084000A128A1500200A12CE
:100808008A11FA007A08F70001300A128A15A82519
:100818000A128A11831203136D08803AFF00803090
:100828007F02031D192C50306C020318D52C83123B
:1008380003136A036B04031DD52C6D08803AFF006F
:1008480080307F02031D2A2C14306C02031CD52C27
:10085800831203136A036B04031DD52C860103302E
:1008680086000F30F9007908F600073084000A1274
:100878008A1500200A128A11FA007A08F700013056
:100888000A128A15A8250A128A110E30F900790869
:10089800F600073084000A128A1500200A128A110D
:1008A800FA007A08F70001300A128A15A8250A12F8
:1008B8008A110D30F9007908F600013084000A1217
:1008C8008A1500200A128A11FA007A08F700013006
:1008D8000A128A15A8250A128A110C30F90079081B
:1008E800F600013084000A128A1500200A128A11C3
:1008F800FA007A08F70001300A128A15A8250A12A8
:100908008A110B30F9007908F600013084000A12C8
:100918008A1500200A128A11FA007A08F7000130B5
:100928000A128A15A8250A128A110A30F9007908CC
:10093800F600013084000A128A1500200A128A1172
:10094800FA007A08F70001300A128A15A8250A1257
:100958008A110930F9007908F600013084000A127A
:100968008A1500200A128A11FA007A08F700013065
:100978000A128A15A8250A128A110830F90079087E
:10098800F600013084000A128A1500200A128A1122
:10099800FA007A08F70001300A128A15A8250A1207
:1009A8008A11831203136D08803AFF0080307F029A
:1009B800031DE02C14306C020318E82C8312031377
:1009C8006A036B040319FB2C831203136D08803A26
:1009D800FF0080307F02031DF32C50306C02031C93
:1009E8009E2D831203136A086B04031D9E2D860136
:1009F800073086000F30F9007908F60007308400C8
:100A08000A128A1500200A128A11FA007A08F700D9
:100A180001300A128A15A8250A128A110E30F90027
:100A28007908F600073084000A128A1500200A1295
:100A38008A11FA007A08F70001300A128A15A825E7
:100A48000A128A110D30F9007908F600073084007F
:100A58000A128A1500200A128A11FA007A08F70089
:100A680001300A128A15A8250A128A110C30F900D9
:100A78007908F600013084000A128A1500200A124B
:100A88008A11FA007A08F70001300A128A15A82597
:100A98000A128A110B30F9007908F6000130840037
:100AA8000A128A1500200A128A11FA007A08F70039
:100AB80001300A128A15A8250A128A110A30F9008B
:100AC8007908F600013084000A128A1500200A12FB
:100AD8008A11FA007A08F70001300A128A15A82547
:100AE8000A128A110930F9007908F60001308400E9
:100AF8000A128A1500200A128A11FA007A08F700E9
:100B080001300A128A15A8250A128A110830F9003C
:100B18007908F600013084000A128A1500200A12AA
:100B28008A11FA007A08F70001300A128A15A825F6
:100B38000A128A11831203136D08803AFF0080306D
:100B48007F02031DA92D50306C020318652E8312F5
:100B580003136A086B04031D652E6D08803AFF00B5
:100B680080307F02031DBA2D32306C02031C652EC3
:100B7800831203136A086B04031D652E86010F3068
:100B880086000F30F9007908F600073084000A1251
:100B98008A1500200A128A11FA007A08F700013033
:100BA8000A128A15A8250A128A110E30F900790846
:100BB800F600073084000A128A1500200A128A11EA
:100BC800FA007A08F70001300A128A15A8250A12D5
:100BD8008A110D30F9007908F600073084000A12EE
:100BE8008A1500200A128A11FA007A08F7000130E3
:100BF8000A128A15A8250A128A110C30F9007908F8
:100C0800F600073084000A128A1500200A128A1199
:100C1800FA007A08F70001300A128A15A8250A1284
:100C28008A110B30F9007908F600013084000A12A5
:100C38008A1500200A128A11FA007A08F700013092
:100C48000A128A15A8250A128A110A30F9007908A9
:100C5800F600013084000A128A1500200A128A114F
:100C6800FA007A08F70001300A128A15A8250A1234
:100C78008A110930F9007908F600013084000A1257
:100C88008A1500200A128A11FA007A08F700013042
:100C98000A128A15A8250A128A110830F90079085B
:100CA800F600013084000A128A1500200A128A11FF
:100CB800FA007A08F70001300A128A15A8250A12E4
:100CC8008A11831203136D08803AFF0080307F0277
:100CD800031D702E32306C0203182C2F831203135D
:100CE8006A086B04031D2C2F6D08803AFF008030C2
:100CF8007F02031D812E14306C02031C2C2F8312DB
:100D080003136A086B04031D2C2F86011F3086000D
:100D18000F30F9007908F600073084000A128A15A6
:100D280000200A128A11FA007A08F70001300A1224
:100D38008A15A8250A128A110E30F9007908F600DA
:100D4800073084000A128A1500200A128A11FA0054
:100D58007A08F70001300A128A15A8250A128A11A2
:100D68000D30F9007908F600073084000A128A1558
:100D780000200A128A11FA007A08F70001300A12D4
:100D88008A15A8250A128A110C30F9007908F6008C
:100D9800073084000A128A1500200A128A11FA0004
:100DA8007A08F70001300A128A15A8250A128A1152
:100DB8000B30F9007908F600073084000A128A150A
:100DC80000200A128A11FA007A08F70001300A1284
:100DD8008A15A8250A128A110A30F9007908F6003E
:100DE800013084000A128A1500200A128A11FA00BA
:100DF8007A08F70001300A128A15A8250A128A1102
:100E08000930F9007908F600013084000A128A15C1
:100E180000200A128A11FA007A08F70001300A1233
:100E28008A15A8250A128A110830F9007908F600EF
:100E3800013084000A128A1500200A128A11FA0069
:100E48007A08F70001300A128A15A8250A128A11B1
:100E5800831203136D08803AFF0080307F02031D60
:100E6800372F14306C0203180800831203136A0822
:100E78006B04031D08000F30F9007908F6000730ED
:100E880084000A128A1500200A128A11FA007A08C8
:100E9800F70001300A128A15A8250A128A110E30A5
:100EA800F9007908F600073084000A128A15002034
:100EB8000A128A11FA007A08F70001300A128A1514
:100EC800A8250A128A110D30F9007908F6000730B2
:100ED80084000A128A1500200A128A11FA007A0878
:100EE800F70001300A128A15A8250A128A110C3057
:100EF800F9007908F600073084000A128A150020E4
:100F08000A128A11FA007A08F70001300A128A15C3
:100F1800A8250A128A110B30F9007908F600073063
:100F280084000A128A1500200A128A11FA007A0827
:100F3800F70001300A128A15A8250A128A110A3008
:100F4800F9007908F600073084000A128A15002093
:100F58000A128A11FA007A08F70001300A128A1573
:100F6800A8250A128A110930F9007908F600073015
:100F780084000A128A1500200A128A11FA007A08D7
:100F8800F70001300A128A15A8250A128A110830BA
:100F9800F9007908F600073084000A128A15002043
:100FA8000A128A11FA007A08F70001300A128A1523
:100FB800A825FF3083120313860008008313B1307D
:100FC800FD000D30FE001630FF00A03084000A122C
:100FD8008A1509250A128A115F30FD000D30FE00BE
:100FE800DD30FF00203084000A128A150925EE0141
:100FF80083010A128A15272D08308A000408840AFA
:1010080082070034203400342C3400343034003467
:08101800313400346D34003462
:1019E800831203138601EE0108000A128A110920E6
:1019F800111408000A128A11092070088312930032
:101A080008007E088A007F08820005250A128A15C8
:101A18008000840A04087D0603190034FF0A0319AC
:101A2800FE0A092D20342034203420342034203478
:101A3800763431342E343034203420342034203479
:101A48002034203400340A128A1112200A128A150E
:101A58000A128A153C250A128A150A128A1194223A
:101A68000A128A150A128A1107210A128A152C2DC0
:101A78008312031305184B2D0130EC070318ED0AE8
:101A88000030ED070A128A11C5210A128A15851835
:101A98000800FF30EC070318ED0AFF30ED070A12C3
:101AA8008A11C5210800FD007A0884008313000804
:101AB800031908007908FB007B08F6007A088400FF
:101AC8000008FC007C08F7007D080A128A15A82582
:101AD8000A128A150130FB007B08FA070130FB0067
:101AE8007B08F907582DB8309400831691018312AA
:101AF8005F08E3006008E4006108E5006208E600AA
:101B080002300310E30DE40DE50DE60DFF3E031D65
:101B1800852D6608F3006508F2006408F100630883
:101B2800F0000130F7003130F6002D30F5000030BC
:101B3800F4000A128A15C0267008FF3E8316930027
:101B48009401FF3087000800F800CA2D76087F3E10
:101B58000A128A158B270A128A15D82D7608BF3ED5
:101B68000A128A158B270A128A15D82D7608933EF1
:101B78000A128A158B270A128A15D82D7608D33EA1
:101B88000A128A158B270A128A15D82D7808013A65
:101B98000319AA2D033A0319B22D013A0319BA2DD4
:101BA800073A0319C22DD82D77080A128A118820FE
:101BB80008004E344C3449344D3449345434453497
:101BC80020344D3449344E342E34203420342034DB
:101BD8002034203400344C3449344D34493454349E
:101BE800453420344D34413458342E342034203494
:101BF8002034203420340034533445344E345334A4
:101C08004F345234203455344C34543452344134E3
:101C1800533453344F344D340034443469347334BA
:101C280074343A3400344C34453444347334003416
:101C3800F601F31F262EF209F309F20A0319F30A33
:101C4800F601F60AF11F2D2EF009F109F00A031921
:101C5800F10A7008710403195A2EF501F50AF11BEF
:101C6800412E01300310F00DF10DFF3E031D362EFD
:101C78000130F4007408F507332E71087302031D50
:101C8800472E70087202031C4F2E7008F20271086A
:101C9800031CF303F30201300310F10CF00CFF3EB8
:101CA800031D502E0130F502031D412E760803193D
:101CB800622EF209F309F20A0319F30A7308F10014
:101CC8007208F0000800F601F11F712EF009F10901
:101CD800F00A0319F10AF601F60AF31F7C2EF2093D
:101CE800F309F20A0319F30A0130F4007408F6063E
:101CF800F701F801700871040319B32EF501F50A0C
:101D0800F11B922E01300310F00DF10DFF3E031D63
:101D1800872E0130F4007408F507842E0130031073
:101D2800F70DF80DFF3E031D932E71087302031D76
:101D38009F2E70087202031CA82E7008F202710808
:101D4800031CF303F302771401300310F10CF00CB9
:101D5800FF3E031DA92E0130F502031D922E7608C1
:101D68000319BB2EF709F809F70A0319F80A7808C6
:101D7800F1007708F00008000030FC000030FB009C
:101D88000030FA000030F90073087204710470041E
:101D98000319152FFD01FD0AF31BE02E0130F80091
:101DA8000310F00DF10DF20DF30DF80BD42E0130E8
:101DB800F8007808FD07D02E0130F8000310F90D5F
:101DC800FA0DFB0DFC0DF80BE22E73087702031DCC
:101DD800F72E72087602031DF72E71087502031D8F
:101DE800F72E70087402031C082F7008F40271089B
:101DF800031C710FF5027208031C720FF6027308B8
:101E0800031C730FF702791401300310F30CF20C62
:101E1800F10CF00CFF3E031D092F0130FD02031DDC
:101E2800E02E7C08F3007B08F2007A08F1007908BC
:101E3800F00008000230F8004530F700A930F6003D
:101E4800F60B242FF70B242FF80B242F2B2F0A1215
:101E58008A15F9240A128A1502300A128A158B2764
:101E68000A128A154130F700EE30F600F60B3A2FC9
:101E7800F70B3A2F000028300A128A158B270A120E
:101E88008A154130F700EE30F600F60B492FF70BB4
:101E9800492F00000F300A128A158B270A128A155B
:101EA8004130F700EE30F600F60B582FF70B582F9D
:101EB800000006300A128A158B270A128A1541304B
:101EC800F700EE30F600F60B672FF70B672F0000D0
:101ED80001300A128A158B270A128A154130F70039
:101EE800EE30F600F60B762FF70B762F00008030D9
:101EF8000A128A158B270A128A154130F700EE302C
:101F0800F600F60B852FF70B852F00000800F4006C
:101F18007408F039F2007208F5000A128A15F924DB
:101F28000A128A154E30F0000030F1000A128A15A4
:101F3800FE240A128A157508043AF2007208F500A0
:101F48007508F200F3017208F0007308F1000A1234
:101F58008A15FE240A128A157508F039F2007208EB
:101F6800F5007508F200F3017208F0007308F1003B
:101F78000A128A15FE240A128A157408F200033020
:101F88000310F20DFF3E031DC42F0310720DF0392C
:101F9800F3007308F5007508043AF2007208F500BA
:101FA8007508F200F3017208F0007308F1000A12D4
:101FB8008A15FE240A128A157508F039F20072088B
:101FC800F5007508F200F3017208F0007308F100DB
:101FD8000A128A15FE240A128A150A128A11042086
:101FE8000A128A154130F300EE30F200F20BFA2F94
:081FF800F30BFA2F00000800B2
:04400E00E120FF3F6F
:00000001FF
