:060000000A128A11F02F24
:100F0E00C034F934A434B034993492348234F83481
:100F1E00803490347E088A007F08820091270A125E
:100F2E008A118000840A04087D0603190034FF0A22
:100F3E000319FE0A952F203084002C30F00004088F
:100F4E00F1000A30F2007008840083130008F300E9
:100F5E00F00A7108840073088000F10AF20BAA2FC0
:100F6E00831603178901880183128713881383164A
:100F7E00031386018312860183120313AA01AB01A8
:100F8E00831203132A08203E840083130008860070
:100F9E003330F200BB30F100DF30F000F00BD52F14
:100FAE00F10BD52FF20BD52FDC2F0130831203134B
:100FBE00AA070318AB0A0030AB072B08803AFF00D4
:100FCE0080307F02031DED2F0A302A020318C32F33
:100FDE00C72F83133630FD000730FE008730FF0029
:100FEE002C3084000A128A11952783010A128A1165
:020FFE00A22F20
:04400E00E120FF3F6F
:00000001FF
