:060000000A128A11E82F2C
:100CAC0064008001840A0406031900340406572EDC
:100CBC00B701B801B901BA01BB01BC01BD01BE014C
:100CCC00C501C601C301C401C101C201C701C801EC
:100CDC0008007E088A007F0882006F260A128A119B
:100CEC008000840A04087D0603190034FF0A0319E6
:100CFC00FE0A732E831603178801890103138801DA
:100D0C008601013087008312880186018701C101A9
:100D1C00C201BF01C001080040343F3406345B34CB
:100D2C004F3466346D347D3407347F346F3479340A
:100D3C00313431343F343F343134313479348034CC
:100D4C00403420341034043070067104031DC22E5C
:100D5C00093072067304031DC22E06307406750426
:100D6C00031DC22E0A3076067704031DC22E0130F5
:100D7C00F0000030F1000800F001F10108007008EB
:100D8C007104031DFA2EC701C8014808803AFF0000
:100D9C0080307F02031DD42E043047020318080054
:100DAC00831203134708333E840083130008880022
:100DBC004708F2007207373E84000008203E84008A
:100DCC00000886000730F3007D30F200F20BEC2EA9
:100DDC00F30BEC2E8312031388010130C7070318A1
:100DEC00C80A0030C807CB2EC701C8014808803A92
:100DFC00FF0080307F02031D052F043047020318CB
:100E0C000800831203134708333E84008313000841
:100E1C00880047082F3E8400000886000730F30046
:100E2C007D30F200F20B182FF30B182F83120313E3
:100E3C0088010130C7070318C80A0030C807FC2E08
:100E4C000A128A1180260A128A1183120313490886
:100E5C00031DE22F0708031D3D2FC9010030F000D0
:100E6C00F1000A128A11C5260A128A112B2FC90108
:100E7C00C90A2B2F4008F1003F08F0000A128A1112
:100E8C00C5260A128A11831203130703031D542F5C
:100E9C000130C3070318C40A0030C4070230070628
:100EAC00031D5E2F0130C5070318C60A0030C607A4
:100EBC000708031D7C2F4308440403197C2F0A30B8
:100ECC00370638040319722F3708013EF80038082A
:100EDC000318013E003E752F0130F8000030F90078
:100EEC007908B8007808B700C301C4010708031DCE
:100EFC00E22F450846040319E22F4208803AFF000E
:100F0C0080307F02031D8C2F03304102031CA42F61
:100F1C00BD2F3808BA003708B900C501C601013029
:100F2C00B7000030B800B62F9F2F3C08BE003B081E
:100F3C00BD003A08BC003908BB008F2F8312031385
:100F4C004208003A0319AB2FB62F4108003A031997
:100F5C008F2F013A03199A2F033A03199B2FB62F9F
:100F6C000130C1070318C20A0030C207E22F8312F6
:100F7C0003133E08F1003D08F0003C08F3003B0869
:100F8C00F2003A08F5003908F4003808F700370881
:100F9C00F6000A128A11A9260A128A11700371042A
:100FAC00031DDE2F0A128A115E260A128A11E22F05
:100FBC000130BF000030C00049030319402F0A1252
:100FCC008A11002883133730FD000630FE00923062
:100FDC00FF00203084000A128A1173260A128A112B
:100FEC00373084004A300A128A11562683010A12BD
:040FFC008A11262F01
:04400E00F22FFF3F4F
:00000001FF
