:060000000A128A110C280F
:10000800FE00030EF1000A08F2000A128A11762B8C
:100018000A128A110F288313B030FD000430FE0045
:100028003A30FF00A03084000A128A112D240A12E7
:100038008A115B30FD000230FE001D30FF002030C9
:1000480084000A128A112D24E501E601E701E8017E
:10005800E901EA01EB01EC01F801F901FA01830178
:100068000A128A11EA2B0C300A128A118F230A12FB
:100078008A11F701F70A02300A128A1195210A1229
:100088008A1146300A128A113B230A128A1101305A
:1000980084000A128A114A240A128A11E1000A30DD
:1000A800E2006208F30078080A128A11F9220A129B
:1000B8008A1161070A128A1158220A128A1101301C
:1000C80084000A128A114A240A128A11E1000A30AD
:1000D800E2006208F30078080A128A11B4220A12B0
:1000E8008A1161070A128A1158220A128A110130EC
:1000F80084000A128A114A240A128A11E1000A307D
:10010800E2006208F30079080A128A11F9220A1239
:100118008A1161070A128A1158220A128A110130BB
:1001280084000A128A114A240A128A11E1000A304C
:10013800E2006208F30079080A128A11B4220A124E
:100148008A1161070A128A1158220A128A1101308B
:1001580084000A128A114A240A128A11E1000A301C
:10016800E2006208F3007A080A128A11F9220A12D8
:100178008A1161070A128A1158220A128A1101305B
:1001880084000A128A114A240A128A11E1000A30EC
:10019800E2006208F3007A080A128A11B4220A12ED
:1001A8008A1161070A128A115822080000300A12BF
:1001B8008A11D4230A128A111A3083120313DC001D
:1001C800F730DB00DB0BE628DC0BE628EB280330F6
:1001D8000A128A118F230A128A1107308312031315
:1001E800DC007C30DB00DB0BF728DC0BF728000099
:1001F80003300A128A118F230A128A110F308312D0
:100208000313DC004730DB00DB0B0829DC0B082973
:1002180003300A128A118F230A128A1102300A1235
:100228008A118F230A128A1102300A128A118F2327
:100238000A128A1108300A128A118F230A128A11A7
:1002480000300A128A118F230A128A110C300A12FE
:100258008A118F230A128A1100300A128A118F23F9
:100268000A128A1106300A128A118F230800831293
:1002780003136608803AFF0093307F02031D462966
:1002880088306502031C080083120313E501E601A8
:100298006C08031908007908031D6F297808031DE5
:1002A8006F297A08031D6F29F901FA01F801EC0199
:1002B8008613F701F70A02300A128A1195210A12E9
:1002C8008A114E300A128A113B230A128A110A1225
:1002D8008A111A23080086177A080319752901302C
:1002E800FA027A08031D88297908031D88297808E5
:1002F800031988293B30E4006408FA003B30E40025
:100308006408F9000130F8027A08031D080079082A
:10031800031908003B30E4006408FA000130F902D0
:100328000800DD005D03031DBA2977087F3EDB0066
:100338005B08E0006008DB0004300310DB0CFF3EC4
:10034800031DA1295B08DC005C08DE0060080F398A
:10035800DB005B08DF005E080A128A118F230A128D
:100368008A115F080A128A118F23080002305D067D
:10037800031D08007708BF3EDB005B08E00060084B
:10038800DB0004300310DB0CFF3E031DC6295B08AD
:10039800DC005C08DE0060080F39DB005B08DF006A
:1003A8005E080A128A118F230A128A115F080A123C
:1003B8008A118F2308008519E329E801E80A851DB9
:1003C800EA2968080319EA29E801EC096C08031905
:1003D800FA29F701F70A02300A128A1195210A123E
:1003E8008A1155300A128A113B230800F701F70ACF
:1003F80002300A128A1195210A128A113C300A1217
:100408008A113B230A128A116608803AFF0093304A
:100418007F02031D112A88306502031C192A8312E2
:1004280003138617E501E6010800831203138613F8
:10043800080053344F344E34453443344134203467
:100448005A347A345A34003456342E342034313401
:100458002E3430340034413443344F34523444342D
:10046800413421342134213400345034413455345A
:10047800533445342034203420342034003420349C
:10048800543449344D3445345234203400344F34D4
:100498004634463420342034203400344F344E342B
:1004A8002034203420340034F70077080F39F40062
:1004B8007408F5007708F039F4007408F60006149B
:1004C8007608F40004300310F40CFF3E031D672A7D
:1004D80074080A128A11D4230A128A1106150D30DB
:1004E800F400F40B752A83120313061175080A1217
:1004F8008A11D4230A128A1106150D30F400F40B60
:10050800832A83120313061108008B170B170B1687
:100518008316811701178112011281110108F83918
:10052800013881000630831281008B160B11831667
:100538000317880189018312871388133F308316B4
:100548000313850086018312E701E801E901EA0146
:10055800EB01EC010511851005108B100B1108003B
:10056800DB000830F4007408DC00DD015B08F400EF
:1005780007300310F40CFF3E031DBD2A5D08F5008B
:1005880075077404F6007608DD000310DB0D7308A8
:100598005D02031CD12A7308DD020130DC02031D51
:1005A800BA2A5D0808000A128A11DA200A128A118A
:1005B800F701F70A01300A128A1195210A128A11E5
:1005C800A0300A128A113B230A128A1110308312B2
:1005D8000313E3003930E2000D30E100E10BF22AA9
:1005E800E20BF22AE30BF22A0800F500F701730880
:1005F8000319182BF601F60AF31B092B0310F30D48
:100608000130F4007408F607002B0310F70D730887
:100618007502031C132B7308F50277140310F30CEF
:100628000130F602031D092B770808000617F701A9
:10063800F70A02300A128A1195210A128A113230F9
:100648000A128A113B230A128A11083083120313F3
:10065800E3009D30E2000530E100E10B312BE20BB5
:10066800312BE30B312B8312031306130800DE0032
:10067800DC01DD015C085E07DB005B088400831396
:100688000008031908005C085E07DB005B088400AB
:1006980000080A128A1158220A128A110130DC074E
:1006A8000318DD0A0030DD073E2B0A128A113B21B0
:1006B8000A128A110A128A11A7230A128A110A1227
:1006C8008A11FF230A128A110A128A1114240A12A3
:1006D8008A110A128A11DF210A128A110A128A1152
:1006E800BE230800013083120313E5070318E60A46
:1006F8000030E607063081000B118B1C882B013077
:10070800F0007008F9078B1072088A00710E8300D8
:10071800FE0E7E0E0900F6008312031306107608FB
:100728000A128A11D4230A128A1106150630F50016
:100738003030F400F40B9E2BF50B9E2B0000831237
:10074800031306110800831203130518AD2BEB01E0
:10075800EB0A051C08006B08031908003B307A06F1
:10076800031DB82BFA01BC2B0130F3007308FA07FC
:10077800EB010800051AC22BE701E70A051E08006D
:10078800670803190800E701E801E901EA01EB013C
:10079800EC01F801FA01F9010511851005100800AE
:1007A800F300731CD92B0616DA2B0612F31CDE2B6A
:1007B8008616DF2B8612731DE32B0617E42B061310
:1007C800F31DE82B86170800861308000A128A1101
:1007D80089220A128A110A128A11D7220A128A1148
:1007E8000A128A1159230A128A110A128A11372009
:1007F8000A128A11F42B8518032CEA01EA0A851CCF
:1008080008006A08031908003B307906031D0E2CFE
:10081800F901122C0130F3007308F907EA01080006
:100828000519182CE901E90A051D080069080319CA
:1008380008003B307806031D232CF801272C0130D3
:10084800F3007308F807E90108007E088A007F08AA
:10085800820029240A128A118000840A04087D066D
:1008680003190034FF0A0319FE0A2D2C20345434CE
:1008780049344D34453452342034443449344734AF
:100888004934543441344C342034003404308A0020
:0C0898000408840A820700343034003465
:04400E00F420FF3F5C
:00000001FF
