:060000000A128A110C280F
:10000800FE00030EF1000A08F2000A128A11792B89
:100018000A128A110F288313B030FD000430FE0045
:100028003D30FF00A03084000A128A1130240A12E1
:100038008A115B30FD000230FE001D30FF002030C9
:1000480084000A128A113024E501E601E701E8017B
:10005800E901EA01EB01EC01F801F901FA01830178
:100068000A128A11ED2B0C300A128A1192230A12F5
:100078008A11F701F70A02300A128A1195210A1229
:100088008A1146300A128A113E230A128A11013057
:1000980084000A128A114D240A128A11E1000A30DA
:1000A800E2006208F30078080A128A111D230A1276
:1000B8008A1161070A128A1158220A128A1101301C
:1000C80084000A128A114D240A128A11E1000A30AA
:1000D800E2006208F30078080A128A11B6220A12AE
:1000E8008A1161070A128A1158220A128A110130EC
:1000F80084000A128A114D240A128A11E1000A307A
:10010800E2006208F30079080A128A111D230A1214
:100118008A1161070A128A1158220A128A110130BB
:1001280084000A128A114D240A128A11E1000A3049
:10013800E2006208F30079080A128A11B6220A124C
:100148008A1161070A128A1158220A128A1101308B
:1001580084000A128A114D240A128A11E1000A3019
:10016800E2006208F3007A080A128A111D230A12B3
:100178008A1161070A128A1158220A128A1101305B
:1001880084000A128A114D240A128A11E1000A30E9
:10019800E2006208F3007A080A128A11B6220A12EB
:1001A8008A1161070A128A115822080000300A12BF
:1001B8008A11D7230A128A11823083120313DC00B2
:1001C800DD30DB00DB0BE628DC0BE62803300A1207
:1001D8008A1192230A128A11213083120313DC0038
:1001E8007530DB00DB0BF628DC0BF628FB28033028
:1001F8000A128A1192230A128A11483083120313B1
:10020800DC006B30DB00DB0B0729DC0B07290C2932
:1002180003300A128A1192230A128A1102300A1232
:100228008A1192230A128A1102300A128A11922321
:100238000A128A1108300A128A1192230A128A11A4
:1002480000300A128A1192230A128A110C300A12FB
:100258008A1192230A128A1100300A128A119223F3
:100268000A128A1106300A128A1192230800831290
:1002780003136608803AFF0093307F02031D462966
:1002880088306502031C080083120313E501E601A8
:100298006C08031908007908031D6F297808031DE5
:1002A8006F297A08031D6F29F901FA01F801EC0199
:1002B8008613F701F70A02300A128A1195210A12E9
:1002C8008A114E300A128A113E230A128A110A1222
:1002D8008A11D922080086177A080319752901306E
:1002E800FA027A08031D88297908031D88297808E5
:1002F800031988293B30E4006408FA003B30E40025
:100308006408F9000130F8027A08031D080079082A
:10031800031908003B30E4006408FA000130F902D0
:100328000800DD005D03031DBA2977087F3EDB0066
:100338005B08E0006008DB0004300310DB0CFF3EC4
:10034800031DA1295B08DC005C08DE0060080F398A
:10035800DB005B08DF005E080A128A1192230A128A
:100368008A115F080A128A119223080002305D067A
:10037800031D08007708BF3EDB005B08E00060084B
:10038800DB0004300310DB0CFF3E031DC6295B08AD
:10039800DC005C08DE0060080F39DB005B08DF006A
:1003A8005E080A128A1192230A128A115F080A1239
:1003B8008A11922308008519E329E801E80A851DB6
:1003C800EA2968080319EA29E801EC096C08031905
:1003D800FA29F701F70A02300A128A1195210A123E
:1003E8008A1155300A128A113E230800F701F70ACC
:1003F80002300A128A1195210A128A113C300A1217
:100408008A113E230A128A116608803AFF00933047
:100418007F02031D112A88306502031C192A8312E2
:1004280003138617E501E6010800831203138613F8
:10043800080053344F344E34453443344134203467
:100448005A347A345A34003456342E342034313401
:100458002E3430340034413443344F34523444342D
:10046800413421342134213400345034413455345A
:10047800533445342034203420342034003420349C
:10048800543449344D3445345234203400344F34D4
:100498004634463420342034203400344F344E342B
:1004A8002034203420340034F70077080F39F40062
:1004B8007408F5007708F039F4007408F60006149B
:1004C8007608F40004300310F40CFF3E031D672A7D
:1004D80074080A128A11D7230A128A1106154230A3
:1004E800F400F40B752A0000831203130611750833
:1004F8000A128A11D7230A128A1106154230F4000B
:10050800F40B842A000083120313061108008B17CA
:100518000B170B168316811701178112011281110F
:100528000108F839013881000630831281008B16E2
:100538000B11831603178801890183128713881307
:100548003F3083160313850086018312E701E80113
:10055800E901EA01EB01EC010511851005108B108A
:100568000B110800DB000830F4007408DC00DD0122
:100578005B08F40007300310F40CFF3E031DBF2A8C
:100588005D08F50075077404F6007608DD000310B1
:10059800DB0D73085D02031CD32A7308DD020130EA
:1005A800DC02031DBC2A5D0808000617F701F70ADC
:1005B80002300A128A1195210A128A1132300A125F
:1005C8008A113E230A128A11273083120313E3008B
:1005D8000D30E2002530E100E10BF02AE20BF02AB1
:1005E800E30BF02AF72A83120313061308000A12F2
:1005F8008A11DA200A128A11F701F70A02300A1260
:100608008A1195210A128A11A0300A128A113E23F2
:100618000A128A114D3083120313E3001930E200E5
:100628004F30E100E10B162BE20B162BE30B162BD8
:100638000800F500F701730803193C2BF601F60AC8
:10064800F31B2D2B0310F30D0130F4007408F6078B
:10065800242B0310F70D73087502031C372B73083E
:10066800F50277140310F30C0130F602031D2D2B4D
:1006780077080800DE00DC01DD015C085E07DB00AE
:100688005B08840083130008031908005C085E07F0
:10069800DB005B08840000080A128A1158220A123B
:1006A8008A110130DC070318DD0A0030DD07412B11
:1006B8000A128A113B210A128A110A128A11AA23E4
:1006C8000A128A110A128A1102240A128A110A12BB
:1006D8008A1117240A128A110A128A11DF210A12B2
:1006E8008A110A128A11C1230800013083120313E8
:1006F800E5070318E60A0030E607063081000B110B
:100708008B1C8B2B0130F0007008F9078B107208D6
:100718008A00710E8300FE0E7E0E0900F600831219
:100728000313061076080A128A11D7230A128A11AF
:1007380006151A30F500F830F400F40BA12BF50B70
:10074800A12B000083120313061108008312031360
:100758000518B02BEB01EB0A051C08006B08031900
:1007680008003B307A06031DBB2BFA01BF2B013072
:10077800F3007308FA07EB010800051AC52BE70117
:10078800E70A051E0800670803190800E701E801E1
:10079800E901EA01EB01EC01F801FA01F90105119F
:1007A800851005100800F300731CDC2B0616DD2BE2
:1007B8000612F31CE12B8616E22B8612731DE62B1C
:1007C8000617E72B0613F31DEB2B86170800861375
:1007D80008000A128A118B220A128A110A128A1137
:1007E800FB220A128A110A128A115C230A128A1140
:1007F8000A128A1137200A128A11F72B8518062C3B
:10080800EA01EA0A851C08006A08031908003B3057
:100818007906031D112CF901152C0130F30073081A
:10082800F907EA01080005191B2CE901E90A051D69
:1008380008006908031908003B307806031D262CB8
:10084800F8012A2C0130F3007308F807E9010800C1
:100858007E088A007F0882002C240A128A118000F0
:10086800840A04087D0603190034FF0A0319FE0AE6
:10087800302C2034543449344D34453452342034E7
:100888004434493447344934543441344C342034A2
:10089800003404308A000408840A820700343034A3
:0208A80000341A
:04400E00E120FF3F6F
:00000001FF
