:060000000A128A110C280F
:10000800FE00030EF0000A08F1000A128A11892D79
:100018000A128A110F2883135730FD000330FE009F
:10002800D430FF00203084000A128A119F25E50190
:10003800E601E701E801E901EA01EB01EC01ED0164
:10004800FA01FB0183010A128A114A2D0C300A12A7
:100058008A11F0210A128A1183120313D801D80ACF
:100068003B30DD005D08D90001300A128A11BD2439
:100078000A128A110530DD005D08F800013084009D
:100088000A128A11AC250A128A11DE000A30DF0032
:100098005F08F2006D080A128A11DF240A128A1119
:1000A8005E07E0006008F90002300A128A110B248A
:1000B8000A128A11013084000A128A11AC250A1228
:1000C8008A1183120313DD000A30DE005E08F20095
:1000D8006D080A128A119A240A128A115D070A12F7
:1000E8008A11F7200A128A11033084000A128A1131
:1000F800AC250A128A110A128A11F7200A128A11EB
:10010800013084000A128A11AC250A128A1183125E
:100118000313DD000A30DE005E08F2007B080A12D5
:100128008A11DF240A128A115D070A128A11F72040
:100138000A128A11013084000A128A11AC250A12A7
:100148008A1183120313DD000A30DE005E08F20014
:100158007B080A128A119A240A128A115D070A1268
:100168008A11F7200A128A11033084000A128A11B0
:10017800AC250A128A110A128A11F7200A128A116A
:10018800013084000A128A11AC250A128A118312DE
:100198000313DD000A30DE005E08F2007A080A1256
:1001A8008A11DF240A128A115D070A128A11F720C0
:1001B8000A128A11013084000A128A11AC250A1227
:1001C8008A1183120313DD000A30DE005E08F20094
:1001D8007A080A128A119A240A128A115D070A12E9
:1001E8008A11F7200800F6007608F039F400740840
:1001F800F7000A128A11CB250A128A114E30F20032
:100208000030F3000A128A11BF250A128A117708F2
:10021800053AF4007408F7007708F400F50174084B
:10022800F2007508F3000A128A11BF250A128A1112
:100238007708F039F4007408F7007708013AF400F9
:100248007408F7007708F400F5017408F2007508DF
:10025800F3000A128A11BF250A128A117608F400DF
:1002680003300310F40DFF3E031D35290310740DF0
:10027800F039F5007508F7007708053AF4007408B6
:10028800F7007708F400F5017408F2007508F30028
:100298000A128A11BF250A128A117708F039F40068
:1002A8007408F7007708013AF4007408F700770833
:1002B800F400F5017408F2007508F3000A128A11B7
:1002C800BF250A128A110A128A11C6250A128A1132
:1002D8004130F500EE30F400F40B7029F50B70296D
:1002E80000000800023083120313D9004530D800FB
:1002F800A930D700D70B7E29D80B7E29D90B7E29A8
:100308000A128A11CB250A128A1102300A128A119E
:10031800F0210A128A11413083120313D800ED30FC
:10032800D700D70B9529D80B95299A2928300A1276
:100338008A11F0210A128A11413083120313D8005E
:10034800ED30D700D70BA629D80BA629AB290F303B
:100358000A128A11F0210A128A11413083120313FA
:10036800D800ED30D700D70BB729D80BB729BC294F
:1003780006300A128A11F0210A128A1141308312BA
:100388000313D800ED30D700D70BC829D80BC829DC
:10039800CD2901300A128A11F0210A128A1141303E
:1003A80083120313D800ED30D700D70BD929D80B07
:1003B800D929DE2980300A128A11F0210A128A11FD
:1003C800413083120313D800ED30D700D70BEA2948
:1003D800D80BEA29EF290800F6007608F039F4006E
:1003E8007408F7000A128A11CB250A128A114E30B6
:1003F800F2000030F3000A128A11BF250A128A118E
:100408007708043AF4007408F7007708F400F50157
:100418007408F2007508F3000A128A11BF250A123F
:100428008A117708F039F4007408F7007708F400A7
:10043800F5017408F2007508F3000A128A11BF2545
:100448000A128A117608F40003300310F40DFF3EF7
:10045800031D292A0310740DF039F5007508F700FB
:100468007708043AF4007408F7007708F400F501F7
:100478007408F2007508F3000A128A11BF250A12DF
:100488008A117708F039F4007408F7007708F40047
:10049800F5017408F2007508F3000A128A11BF25E5
:1004A8000A128A110A128A11C6250A128A114130C3
:1004B800F500EE30F400F40B5F2AF50B5F2A00001C
:1004C80008000030E0000130DF008630DE00A03098
:1004D800DD000A128A1140240A128A110A128A11AE
:1004E80076210A128A1101300A128A11F0210A12A1
:1004F8008A1183120313D801D80A21308316A00069
:1005080020088312D90001300A128A11BD240A1268
:100518008A110D3083160313A200AF30A100B53045
:10052800A000A00B952AA10B952AA20B952A9C2A1C
:10053800053083160313A00020088312D8004A3020
:100548008316A10021088312D90002300A128A11E9
:10055800BD240A128A111A3083160313A2005E30D2
:10056800A1006D30A000A00BB72AA10BB72AA20BDF
:10057800B72ABE2AC0300A128A11F0210A128A113B
:100588000C300A128A11F0210A128A1101300A125B
:100598008A11F0210800831203136608803AFF00CD
:1005A80093307F02031DDA2A88306502031C080095
:1005B80083120313E501E6016C08031908007B08A0
:1005C800031D122B6D08031D122B7A08031D122B15
:1005D800FB01FA01ED01EC0186130830DD005D082E
:1005E800D8004330DE005E08D90001300A128A11B3
:1005F800BD240A128A1186154D3083120313DF00B9
:100608001930DE004F30DD00DD0B082BDE0B082B28
:10061800DF0B082B831203138611080086177A084C
:100628000319182B0130FA027A08031D2B2B7B08BB
:10063800031D2B2B6D0803192B2B3B30DD005D08A8
:10064800FA003B30DD005D08FB000130ED027A085E
:10065800031D08007B08031908003B30DD005D0816
:10066800FA000130FB0208000030DB000030DA003D
:100678000030D9000030D80075087404730472047F
:1006880003198D2BDC01DC0AF51B582B0130D70030
:100698000310F20DF30DF40DF50DD70B4C2B0130B3
:1006A800D7005708DC07482B0130D7000310D80DB6
:1006B800D90DDA0DDB0DD70B5A2B75087902031DFE
:1006C8006F2B74087802031D6F2B73087702031DC4
:1006D8006F2B72087602031C802B7208F6027308CF
:1006E800031C730FF7027408031C740FF8027508D3
:1006F800031C750FF902581401300310F50CF40CA3
:10070800F30CF20CFF3E031D812B0130DC02031DAC
:10071800582B5B08F5005A08F4005908F3005808EC
:10072800F200080085199A2BE801E80A851DA12B1B
:1007380068080319A12BE801EC096C080319B12B0F
:100748000830DD005D08D8005130DE005E08D900B1
:1007580001300A128A11BD2408000830DD005D0846
:10076800D8003130DE005E08D90001300A128A1143
:10077800BD240A128A116608803AFF0093307F026E
:10078800031DC82B88306502031CD02B831203136A
:100798008617E501E6010800831203138613080093
:1007A8004E342034543449344D3445345234203492
:1007B8004434493447344934543441344C34203473
:1007C80000345034413455345334453420342034C3
:1007D8002034203400342034543449344D344534E2
:1007E8005234203400344F344634463420342034D4
:1007F8002034003456342E34203431342E343034FE
:1008080000344F344E342034203420340034D700A0
:100818002D2C78087F3E0A128A11F0210A128A11BB
:100828003B2C7808BF3E0A128A11F0210A128A115D
:100838003B2C7808933E0A128A11F0210A128A1179
:100848003B2C7808D33E0A128A11F0210A128A1129
:100858003B2C5708013A03190D2C033A0319152CA0
:10086800013A03191D2C073A0319252C3B2C79084A
:100878000A128A11F7200800B830940083169101F3
:1008880083125D08E1005E08E2005F08E30060088B
:10089800E40002300310E10DE20DE30DE40DFF3E2C
:1008A800031D4E2C6408F5006308F4006208F30089
:1008B8006108F2000130F9003130F8002D30F700FE
:1008C8000030F6000A128A1138237208FF3E831698
:1008D80093009401FF30870008008B178B160B11CB
:1008E8008316811701138112011281110108F83949
:1008F80001388100063083128100831603178801AE
:1009080089018312871388133F30831603138500E8
:100918008601831285018601E701E801E901EA0100
:10092800EB01EC010511851005100800F6000830F0
:10093800F3007308F700F8017608F3000730031096
:10094800F30CFF3E031DA32C7808F400740773040E
:10095800F5007508F8000310F60D72087802031CFC
:10096800B72C7208F8020130F702031DA02C780892
:100978000800DC00590884008313000803190800E4
:100988005808DA005A08F800590884000008DB0003
:100998005B08F9005C080A128A110B240A128A11F2
:1009A800013083120313DA005A08D9070130DA003C
:1009B8005A08D807BE2CF400F60172080319FE2C59
:1009C800F501F50AF21BEF2C0310F20D0130F300CC
:1009D8007308F507E62C0310F60D72087402031C61
:1009E800F92C7208F40276140310F20C0130F502A7
:1009F800031DEF2C760808000A128A11CF220A126A
:100A08008A110A128A111D250A128A110A128A11DC
:100A18005F250A128A110A128A1174250A128A118C
:100A28000A128A1196230A128A110A128A11342587
:100A38000800831203130518232DEB01EB0A051C8C
:100A480008006B08031908003B307A06031D2E2D99
:100A5800FA01322D0130F2007208FA07EB010800A2
:100A6800051A382DE701E70A051E0800670803196B
:100A78000800E701E801E901EA01EB01EC01ED01F9
:100A8800FA01FB0105118510051008000A128A11E8
:100A980071240A128A110A128A1165220A128A110D
:100AA8000A128A1100250A128A110A128A112A20AA
:100AB8000A128A11542D8518632DEA01EA0A851C49
:100AC80008006A08031908003B307B06031D6E2DD9
:100AD800FB01722D0130F2007208FB07EA010800E1
:100AE8000519782DE901E90A051D080069080319A7
:100AF80008003B306D06031D832DED01872D013065
:100B0800F2007208ED07E9010800013083120313AF
:100B1800E5070318E60A0030E607063081000B11E6
:100B280071088A00700E8300FE0E7E0E09007E0892
:100B38008A007F0882009B250A128A118000840A95
:100B480004087D0603190034FF0A0319FE0A9F2DC5
:100B580005308A000408840A8207003430340034DF
:100B68003A340034831603131419B62D11081F39AB
:100B780003190800B62D0A128A11B62572088312C5
:100B8800930008000A128A11B625111508000A12E6
:080B98008A11B62511140800B2
:04400E00E120FF3F6F
:00000001FF
