:060000000A128A1110280B
:10000800FE00030E83120313C9000408CA000A087D
:10001800CB000A128A11BB2D0A128A1113288313E6
:10002800C530FD000630FE000B30FF00A030840014
:100038000A128A1165270A128A114730FD00053015
:10004800FE00E430FF00203084000A128A11652780
:10005800DF01E001E101E201E301E401E501E6017C
:10006800E701E801E90183010A128A11222F0C3005
:100078000A128A1112220A128A1183120313D50155
:10008800D50A2B30DA005A08D60001300A128A1134
:1000980075260A128A110530DA005A08D200013092
:1000A80084000A128A1172270A128A11DB000A30A8
:1000B800DC005C08CC0067080A128A1197260A122D
:1000C8008A115B07DD005D08D30002300A128A112D
:1000D80021250A128A11013084000A128A11722716
:1000E8000A128A1183120313DA000A30DB005B0854
:1000F800CC0067080A128A1130260A128A115A0798
:100108000A128A1108210A128A11033084000A127D
:100118008A1172270A128A110A128A1108210A12F0
:100128008A11013084000A128A1172270A128A1170
:1001380083120313DA000A30DB005B08CC0068087E
:100148000A128A1197260A128A115A070A128A1164
:1001580008210A128A11013084000A128A117227B2
:100168000A128A1183120313DA000A30DB005B08D3
:10017800CC0068080A128A1130260A128A115A0716
:100188000A128A1108210A128A11033084000A12FD
:100198008A1172270A128A110A128A1108210A1270
:1001A8008A11013084000A128A1172270A128A11F0
:1001B80083120313DA000A30DB005B08CC006908FD
:1001C8000A128A1197260A128A115A070A128A11E4
:1001D80008210A128A11013084000A128A11722732
:1001E8000A128A1183120313DA000A30DB005B0853
:1001F800CC0069080A128A1130260A128A115A0795
:100208000A128A110821080083120313D00050082B
:10021800F039CE004E08D1000A128A11A1270A121D
:100228008A1183122008CE00CF014E08CC004F0857
:10023800CD000A128A118E270A128A115108053A2E
:10024800CE004E08D1005108CE00CF014E08CC0098
:100258004F08CD000A128A118E270A128A115108F6
:10026800F039CE004E08D1005108013ACE004E08B0
:10027800D1005108CE00CF014E08CC004F08CD0068
:100288000A128A118E270A128A115008CE000330EA
:100298000310CE0DFF3E031D4C2903104E0DF039FF
:1002A800CF004F08D1005108053ACE004E08D100C2
:1002B8005108CE00CF014E08CC004F08CD000A12DD
:1002C8008A118E270A128A115108F039CE004E0879
:1002D800D1005108013ACE004E08D1005108CE0095
:1002E800CF014E08CC004F08CD000A128A118E2784
:1002F8000A128A110A128A119C270A128A1141309D
:1003080083120313CF00ED30CE00CE0B8929CF0B1B
:1003180089298E290800F4007408F039F20072085F
:10032800F5000A128A11AB270A128A1183122008D3
:10033800F200F3017208F0007308F1000A128A1142
:1003480095270A128A117508053AF2007208F50015
:100358007508F200F3017208F0007308F1000A1240
:100368008A1195270A128A117508F039F200720865
:10037800F5007508013AF2007208F5007508F200F8
:10038800F3017208F0007308F1000A128A11952728
:100398000A128A117408F20003300310F20DFF3EAE
:1003A800031DD1290310720DF039F3007308F5000D
:1003B8007508053AF2007208F5007508F200F301B5
:1003C8007208F0007308F1000A128A1195270A12C0
:1003D8008A117508F039F2007208F5007508013ABB
:1003E800F2007208F5007508F200F3017208F000D7
:1003F8007308F1000A128A1195270A128A110A1243
:100408008A11A6270A128A114130F300EE30F20051
:10041800F20B0C2AF30B0C2A0000080083120313BA
:10042800D0005008F039CE004E08D1000A128A11C7
:10043800A1270A128A1183122008CE00CF014E0884
:10044800CC004F08CD000A128A118E270A128A1191
:100458005108043ACE004E08D1005108CE00CF0111
:100468004E08CC004F08CD000A128A118E270A12B6
:100478008A115108F039CE004E08D1005108CE003B
:10048800CF014E08CC004F08CD000A128A118E27E2
:100498000A128A115008CE0003300310CE0DFF3E19
:1004A800031D512A03104E0DF039CF004F08D1001B
:1004B8005108043ACE004E08D1005108CE00CF01B1
:1004C8004E08CC004F08CD000A128A118E270A1256
:1004D8008A115108F039CE004E08D1005108CE00DB
:1004E800CF014E08CC004F08CD000A128A118E2782
:1004F8000A128A110A128A119C270A128A1141309B
:1005080083120313CF00ED30CE00CE0B892ACF0B18
:10051800892A8E2A0800023083120313D40045303A
:10052800D300A930D200D20B972AD30B972AD40B29
:10053800972A0A128A11A1270A128A1102300A126E
:100548008A1112220A128A11413083120313D3002E
:10055800ED30D200D20BAE2AD30BAE2AB32A283004
:100568000A128A1112220A128A11413083120313C5
:10057800D300ED30D200D20BBF2AD30BBF2AC42A36
:100588000F300A128A1112220A128A11413083127C
:100598000313D300ED30D200D20BD02AD30BD02ACC
:1005A800D52A06300A128A1112220A128A114130FB
:1005B80083120313D300ED30D200D20BE12AD30B00
:1005C800E12AE62A01300A128A1112220A128A1135
:1005D800413083120313D300ED30D200D20BF22A3C
:1005E800D30BF22AF72A80300A128A1112220A1231
:1005F8008A11413083120313D300ED30D200D20B9D
:10060800032BD30B032B082B0800F4007408F039D4
:10061800F2007208F5000A128A11AB270A128A1131
:1006280083122008F200F3017208F0007308F10049
:100638000A128A1195270A128A117508043AF200DB
:100648007208F5007508F200F3017208F0007308EB
:10065800F1000A128A1195270A128A117508F039D1
:10066800F2007208F5007508F200F3017208F00054
:100678007308F1000A128A1195270A128A11740860
:10068800F20003300310F20DFF3E031D462B03104A
:10069800720DF039F3007308F5007508043AF2009A
:1006A8007208F5007508F200F3017208F00073088B
:1006B800F1000A128A1195270A128A117508F03971
:1006C800F2007208F5007508F200F3017208F000F4
:1006D8007308F1000A128A1195270A128A110A1260
:1006E8008A11A6270A128A114130F300EE30F2006F
:1006F800F20B7C2BF30B7C2B000008000030DD0094
:100708000130DC008630DB00A030DA000A128A11E2
:10071800A4240A128A110A128A118F220A128A1133
:1007280001300A128A1112220A128A118312031343
:10073800D501D50AA0308316C90049088312D6000E
:1007480001300A128A1175260A128A110D30831691
:100758000313CB00AF30CA00B530C900C90BB22BA8
:10076800CA0BB22BCB0BB22BB92B05308316031354
:10077800C90049088312D5003A308316CA004A08CE
:100788008312D60002300A128A1175260A128A11BB
:100798001A3083160313CB005E30CA006D30C900CF
:1007A800C90BD42BCA0BD42BCB0BD42BDB2BC030CF
:1007B8000A128A1112220A128A110C300A128A119C
:1007C80012220A128A1101300A128A111222080012
:1007D8000030D8000030D7000030D6000030D500F7
:1007E8004F084E044D044C040319412CD901D90A71
:1007F800CF1B0C2C0130D4000310CC0DCD0DCE0D29
:10080800CF0DD40B002C0130D4005408D907FC2B91
:100818000130D4000310D50DD60DD70DD80DD40B4B
:100828000E2C4F085302031D232C4E085202031DA1
:10083800232C4D085102031D232C4C085002031C85
:10084800342C4C08D0024D08031C4D0FD1024E0821
:10085800031C4E0FD2024F08031C4F0FD30255142E
:1008680001300310CF0CCE0CCD0CCC0CFF3E031D79
:10087800352C0130D902031D0C2C5808CF0057081D
:10088800CE005608CD005508CC000800831203138B
:100898006008803AFF0093307F02031D552C883092
:1008A8005F02031C080083120313DF01E0016608DE
:1008B800031908006808031D7E2C6708031D7E2C99
:1008C8006908031D7E2CE801E901E701E6018613AA
:1008D8000830DD005D08D5003330DE005E08D60044
:1008E80001300A128A1175260A128A110A128A110F
:1008F80053260800861769080319842C0130E90279
:100908006908031D972C6808031D972C67080319AD
:10091800972C3B30DD005D08E9003B30DD005D08C9
:10092800E8000130E7026908031D08006808031998
:1009380008003B30DD005D08E9000130E8020800EE
:10094800B83094008316910183125A088316C500A3
:1009580083125B088316C60083125C088316C700DF
:1009680083125D088316C80002300310C50DC60D3A
:10097800C70DC80DFF3E031DB92C48088312CF00D0
:10098800831647088312CE00831646088312CD00CB
:10099800831645088312CC000130D3003130D200D1
:1009A8002D30D1000030D0000A128A11EC234C08F7
:1009B800FF3E831693009401FF30870008008519D5
:1009C800E72CE201E20A851DEE2C62080319EE2CE1
:1009D800E201E60966080319FE2C0830DA005A0815
:1009E800D5004130DB005B08D60001300A128A11BD
:1009F800752608000830DA005A08D5002130DB00D7
:100A08005B08D60001300A128A1175260A128A116B
:100A18006008803AFF0093307F02031D152D88304F
:100A28005F02031C1D2D831203138617DF01E001EB
:100A380008008312031386130800D400432D5208BC
:100A48007F3E0A128A1112220A128A11512D520867
:100A5800BF3E0A128A1112220A128A11512D520817
:100A6800933E0A128A1112220A128A11512D520833
:100A7800D33E0A128A1112220A128A11512D5408E1
:100A8800013A0319232D033A03192B2D013A0319AF
:100A9800332D073A03193B2D512D831203135308A5
:100AA8000A128A1108210800F8007A2D76087F3E7C
:100AB8000A128A1109230A128A11882D7608BF3E64
:100AC8000A128A1109230A128A11882D7608933E80
:100AD8000A128A1109230A128A11882D7608D33E30
:100AE8000A128A1109230A128A11882D7808013AF4
:100AF80003195A2D033A0319622D013A03196A2D75
:100B0800073A0319722D882D77080A128A118F2146
:100B180008008B170B170B16831681170117811204
:100B2800011281110108F839013881000630831259
:100B380081008B160B118316031788018901831214
:100B4800871388133F30831603138500013086000E
:100B5800831285018601E101E201E301E401E50177
:100B6800E6010511851005108B100B1108000130E6
:100B7800DF070318E00A0030E007063081000B1198
:100B88008B1CD92D0130C7004708E8070830C7007B
:100B98004708F900B030C8004808FA0001300A12C6
:100BA8008A11B8260A128A118B10831203134B0874
:100BB8008A004A088400490E8300FE0E7E0E090052
:100BC8004E34503441345534533445342034203471
:100BD8002034203400342034543449344D344534DE
:100BE8005234203400344F344634463420342034D0
:100BF8002034003456342E34203431342E343034FA
:100C080000344F344E34203420342034003420341F
:100C1800543449344D3445345234203444344934FE
:100C280047344934543441344C3420340034533438
:100C38004F344E3445344334413420345A347A34B2
:100C48005A340034413443344F34523444344134F8
:100C58002134213421340034D0000830CD004D082F
:100C6800D100D2015008CD0007300310CD0CFF3E53
:100C7800031D392E5208CE004E074D04CF004F08F1
:100C8800D2000310D00D4C085202031C4D2E4C0804
:100C9800D2020130D102031D362E52080800061771
:100CA8000830DA005A08D500BB30DB005B08D600F4
:100CB80001300A128A1175260A128A112730831206
:100CC8000313DC000D30DB002530DA00DA0B6A2E66
:100CD800DB0B6A2EDC0B6A2E712E831203130613AC
:100CE8000800D90056088400831300080319080077
:100CF8005508D7005708D200560884000008D800C5
:100D08005808D30059080A128A1121250A128A1193
:100D1800013083120313D7005708D6070130D700D4
:100D28005708D507762ECE00D0014C080319B62EE9
:100D3800CF01CF0ACC1BA72E0310CC0D0130CD005C
:100D48004D08CF079E2E0310D00D4C084E02031CF1
:100D5800B12E4C08CE0250140310CC0C0130CF0237
:100D6800031DA72E50080800FD007A08840083138D
:100D78000008031908007908FB007B08F6007A08C8
:100D880084000008FC007C08F7007D080A128A111C
:100D980058250A128A110130FB007B08FA07013036
:100DA800FB007B08F907B92E0A128A114A240A1295
:100DB8008A110A128A11F5260A128A110A128A1150
:100DC80037270A128A110A128A114C270A128A1125
:100DD8000A128A11E3240A128A110A128A110C27AC
:100DE8000800831203130518FB2EE501E50A051C0C
:100DF80008006508031908003B306906031D062F23
:100E0800E9010A2F0130CC004C08E907E501080088
:100E1800051A102FE101E10A051E080061080319EF
:100E28000800E101E201E301E401E501E601E7016F
:100E3800E901E80105118510051008000A128A1158
:100E48008D250A128A110A128A1182230A128A111E
:100E58000A128A11D8260A128A110A128A113B200C
:100E68000A128A112C2F85183B2FE401E40A851CED
:100E780008006408031908003B306806031D462F64
:100E8800E8014A2F0130CC004C08E807E4010800CB
:100E98000519502FE301E30A051D0800630803192B
:100EA80008003B306706031D5B2FE7015F2F013009
:100EB800CC004C08E707E30108007E088A007F0899
:100EC800820061270A128A118000840A04087D06BC
:100ED80003190034FF0A0319FE0A652F07308A0038
:100EE8000408840A82070034303400343A34003469
:100EF8008316031314197C2F11081F3903190800CE
:100F08007C2F831603131419852F11081F39031911
:100F18000800852F0A128A117C2783124C08930037
:100F280008000A128A1185277008831293000800A6
:100F38000A128A117C27111508000A128A117C27C7
:100F4800111408000A128A118527111508000A12BF
:080F58008A118527111408001D
:04400E00E120FF3F6F
:00000001FF
